:020000020000FC
:100000000CEF0AB901E004B910E01BB911E015B911
:100010000E943E0014EE1BB911E015B90E943E008B
:1000200010E91BB910E015B90E943E0010EC1BB995
:1000300010E015B90E943E001CE61BB910E015B98E
:100040000E943E0018E41BB910E015B90E943E0062
:1000500018E01BB910E015B90E943E0010EE1BB964
:1000600011E015B90E943E0010E01BB910E015B96F
:100070000E943E0010E61BB910E015B900E210E046
:1000800020E02A95F1F71A95E1F70A95D1F708953E
:02009000FFCFA0
:00000001FF
