:100000000C9434000C943E000C943E000C943E0082
:100010000C943E000C943E000C943E000C943E0068
:100020000C943E000C943E000C943E000C943E0058
:100030000C943E000C943E000C943E000C943E0048
:100040000C943E000C943E000C943E000C943E0038
:100050000C943E000C943E000C943E000C943E0028
:100060000C943E000C943E0011241FBECFEFD8E04C
:10007000DEBFCDBF0E9440000C9456000C940000DF
:1000800080E284B988EF8AB984E08BB989B199B1EB
:1000900029B182FF04C093FD07C024FF05C080E0A2
:1000A00095B1892B85B9F2CF80E2FACFF894FFCFD2
:00000001FF
