:100000000C943E000C9448000C9448000C9448005A
:100010000C9448000C9448000C9448000C94480040
:100020000C9448000C9448000C9448000C94480030
:100030000C9448000C9448000C9448000C94480020
:100040000C9448000C9448000C9448000C94480010
:100050000C9448000C9448000C9448000C94480000
:100060000C9448000C9448005D00610066006A0032
:100070006E00720076007A005600590011241FBEEF
:10008000CFEFD8E0DEBFCDBF0E947F000C948D0083
:100090000C9400008A30910520F015B888E18BB9E6
:1000A0000895FC01EC5CFF4F0C94870015B81BB859
:1000B000089515B880E48BB9089581E085B91BB81F
:1000C000089581E085B984EE8BB9089515B880E96B
:1000D0008BB9089515B880EC8BB9089515B884E6EE
:1000E0008BB9089515B888E48BB9089515B888E0E0
:1000F0008BB9089581E085B980EE8BB908958AB1F6
:100100008C6F8AB9209A88E415B88BB9FDCFEE0FB1
:0E011000FF1F0590F491E02D0994F894FFCFA5
:00000001FF
